:020000040800F2
:10000000781B002009010008A52F00085D1D0008CD
:10001000F52E0008A9110008D19B0008000000007F
:10002000000000000000000000000000C55F0008A4
:10003000CD16000800000000B9420008618B0008DE
:100040002301000823010008230100082301000800
:100050002301000823010008DD160008C517000869
:10006000ED170008151800083D18000823010008C6
:1000700023010008230100082301000823010008D0
:1000800023010008230100082301000823010008C0
:100090002301000823010008230100086518000857
:1000A00023010008230100082301000823010008A0
:1000B0002301000823010008230100082301000890
:1000C0002301000823010008230100082301000880
:1000D0002301000875900008A1910008CD92000846
:1000E00005170008495000082301000823010008F3
:1000F00023010008DFF80CD000F03AFC004800476C
:10010000CDA90008781B0020064880470648004714
:10011000FEE7FEE7FEE7FEE7FEE7FEE7FEE7FEE7B7
:10012000FEE7FEE7AD8B0008F500000840EA01039A
:100130009B0703D009E008C9121F08C0042AFAD29D
:1001400003E011F8013B00F8013B521EF9D2704761
:10015000D2B201E000F8012B491EFBD27047002209
:10016000F6E710B513460A4604461946FFF7F0FFB6
:10017000204610BD80EA010210B502F000434000A5
:1001800022D04A001FD0010E01EB1261C0F35600CD
:10019000C2F3560240F4000042F40002A0FB022029
:1001A00000047F39140400D0401C50EA124001D4EE
:1001B0004000491EC2B20C0604EBD010401C40089F
:1001C000802A02D003E0002010BD20F001000029A9
:1001D00000DA0020184310BD30B480EA010202F0BA
:1001E000004530F0004221F0004013D090B1C30D23
:1001F000D40DC2F31601C0F31600E41A41F4000155
:1002000040F400027D34914201D3641C00E04900B7
:10021000002C02DA30BC002070474FF400000023AD
:10022000914201D3891A034340084FEA4101F7D1B3
:1002300051B1914202D14FF0004105E002D24FF09E
:10024000010101E06FF0010103EBC450284430BC10
:1002500000F09EBA2DE9FE4F804681EA0300C00FF0
:100260000C46009021F0004123F00045B8EB02005D
:10027000A94105D24046214690461C460B460246FF
:1002800023F00040104347D0270DC7F30A00C3F303
:100290000A510290401A019040286BDAC3F3130010
:1002A00040F4801B0098924620B10023D2EB030A51
:1002B00063EB0B0B01985946C0F14002504600F029
:1002C00036FA06460D4650465946019A00F04EFA57
:1002D00010EB08006141002487EA115284EAE773B9
:1002E0001A4340D0009A62B3019A012A4FEA07529A
:1002F00015DC001B61EB02014FF0004202EA0752DD
:10030000CDE90042001C41F5801132462B4600F039
:1003100085FA03B0BDE8F08F40462146F9E7001B9F
:1003200061EB0201001C41F5801300185B412018AD
:10033000A2F5001747EB030140EAD570B6196D41ED
:1003400011E06D084FEA360645EAC0754FEA0752DC
:10035000001B61EB0201001C41F5801149084FEAC6
:1003600030000019514132462B4603B0BDE8F04F32
:1003700000F045BA0098012240000023D0EB0202B1
:1003800063EBE073009821464FEAE074B8EB00009D
:1003900061EB0401E9E783F000435BE781F0004192
:1003A00058E72DE9FE4F81EA030404F0004421F0F0
:1003B000004100944FF0000B23F0004350EA010489
:1003C0005ED052EA03045BD0C3F30A54C1F30A556A
:1003D0002C44A4F2F3340194A0FB0254C1F31301A2
:1003E00041F48011C3F3130343F4801301FB02446F
:1003F00000FB034E840A970A44EA815447EA835774
:10040000A4FB076802958D0A05FB07854FEA932C2C
:1004100004FB0C542705029D4FEA065847EA16379D
:10042000B5EB08056EEB070C870E920E47EA8117B5
:1004300042EA8312A7FB0201B6EB0B0164EB000456
:100440002B0D43EA0C335E1844EB1C50DA46514640
:10045000E7FB0201C5F313044FEA0B3343EA1453DD
:100460004FEA0432019C43EA0603A4F10C0402940F
:10047000009CCDE900B400F0D1F903B0BDE8F08FE5
:1004800000200146F9E72DE9F04D81EA030404F06C
:10049000004B21F0004514464FF0000A23F00041C4
:1004A00050EA050220D054EA01021DD0C5F30A57D4
:1004B0000246C5F31303C1F31300C1F30A5640F417
:1004C000801543F48013A7EB0608101BD64608F2EC
:1004D000FD3873EB050002D308F1010801E0921822
:1004E0005B41B8F1000F03DA00200146BDE8F08D52
:1004F00000204FF48011064684460EE0171B73EB74
:10050000050705D3121B63EB050306434CEA010CF8
:1005100049084FEA300092185B4150EA0107EDD1DB
:1005200052EA030012D082EA040083EA050108437C
:1005300005D0101BAB4106D20122002306E00022A9
:100540004FF0004302E06FF0010253101AEB060077
:100550004CEB085110EB0A0041EB0B01BDE8F04DEC
:1005600000F04DB996230022114600F01AB90EB5DD
:10057000C10F80EAE0700844CA07002140F233430B
:100580008DE80E000A460B4600F048F903B000BDA6
:100590000EB540F2334102910021CDE900110A4627
:1005A0000B4600F03BF903B000BD70B5C1F30A5231
:1005B00001F000450024C1F3130140F2FF3341F480
:1005C00080119A4201DA002070BD40F233439A4212
:1005D000A2F2334203DC524200F0B8F800E090404F
:1005E0002C43F1D0404270BDC1F30A5210B5C1F3A3
:1005F000130140F2FF3341F480119A4201DA0020E6
:1006000010BD40F233439A42A2F2334203DC52421D
:1006100000F09CF810BD904010BD00F0004230F09A
:1006200000400AD0C10D01F56071C0F3160042EA26
:100630000151C2084007114370470020014670472E
:1006400030B5041E71F1000404DB4FF00044404259
:1006500064EB0101141E73F1000405DB1C464FF02E
:100660000043524263EB04038B4208BF824230BD19
:1006700030B5041E71F1000404DB4FF00044404229
:1006800064EB0101141E73F1000405DB1C464FF0FE
:100690000043524263EB0403994208BF904230BDCD
:1006A00030B50B46014600202022012409E021FA42
:1006B00002F59D4205D303FA02F5491B04FA02F53F
:1006C0002844151EA2F10102F1DC30BD2DE9F05FD6
:1006D0000546002092469B468846064681464024B1
:1006E0001BE0284641464746224600F02FF8534675
:1006F0005A46C01A914110D311461846224600F0BE
:1007000016F82D1A67EB01084F46224601200021FA
:1007100000F00DF817EB00094E41201EA4F1010472
:10072000DFDC484631462A464346BDE8F09F202A92
:1007300004DB203A00FA02F1002070479140C2F138
:10074000200320FA03F3194390407047202A04DB6A
:10075000203A21FA02F00021704721FA02F3D0403A
:10076000C2F120029140084319467047202A06DB57
:10077000CB17203A41FA02F043EAE07306E041FA6F
:1007800002F3D040C2F1200291400843194670475D
:100790000029A8BF7047401C490008BF20F0010095
:1007A000704710B4B0FA80FC00FA0CF050EA010473
:1007B00004BF10BC704749B1CCF1200421FA04F405
:1007C00011FA0CF118BF012121430843A3EB0C01DE
:1007D000CB1D4FEA00614FEA102042BF002010BC41
:1007E000704700EBC35010440029A4BF10BC7047F1
:1007F000401C490008BF20F0010010BC704710B534
:10080000141E73F1000408DA401C41F10001921833
:100810005B411A4301D120F0010010BD2DE9F04DDC
:1008200092469B4611B1B1FA81F202E0B0FA80F231
:1008300020329046FFF77BFF04460F4640EA0A004D
:1008400041EA0B0153465A46084313D0114653EA76
:10085000010019D0C8F140025046FFF777FF054666
:100860000E46504659464246FFF761FF084305D001
:10087000012004E020463946BDE8F08D0020054304
:1008800046EAE0762C4337430A986305E40AA0EB76
:1008900008000022FD0A44EA47540A3002D500202D
:1008A0000146E9E7010510196941DDE9084500192C
:1008B0006941BDE8F04DA2E72DE9F041054621F080
:1008C00000400C46284309D0C4F30A5040F233419B
:1008D000884205DD28462146BDE8F0812846FBE731
:1008E00040F2FE31884210DC0CDB4FEA043040EA73
:1008F000155050EA053105D0104804F0004101437D
:100900000020E9E700200146E6E7A0F23340464236
:10091000C6F1400228462146FFF709FF07468846F0
:10092000284621463246FFF711FF43463A46FFF775
:1009300066FF3246BDE8F041FFF7F9BE0000F03F28
:10094000C1F30A52C1F3130140F2FF3341F48011A5
:100950009A4202DA00200146704740F233439A423D
:10096000A2F2334202DC5242FFF7F0BEFFF7DFBED5
:10097000064C074D06E0E06840F0010394E80700EC
:1009800098471034AC42F6D3FFF7B8FB44BB0008DD
:1009900064BB000870B58C1810F8015B15F00703F4
:1009A00001D110F8013B2A1106D110F8012B03E008
:1009B00010F8016B01F8016B5B1EF9D12B0705D410
:1009C0000023521E0DD401F8013BFAE710F8013B59
:1009D000CB1A921C03E013F8015B01F8015B521E75
:1009E000F9D5A142D8D3002070BD30B589B00546F5
:1009F0000C461022002105A80AF0C2F8224605A9DB
:100A000005A809F0EAFD9DF8140000F08000E8B1A7
:100A100000BF00200AE005A9095C4A0005AB411CA3
:100A2000595C42EAE11105AA1154401C0F28F2DB7F
:100A30009DF823104906090E8DF8231000BF9DF87C
:100A4000230080F087008DF8230016E000BF00200F
:100A50000AE005A9095C4A0005AB411C595C42EA61
:100A6000E11105AA1154401C0F28F2DB9DF8231058
:100A70004906090E8DF8231000BFD4F81401102880
:100A80000FD100BF002009E004F20111095C05AAA2
:100A9000125C514004F201121154401C1028F3DB87
:100AA0005DE09DF8140000F08000E8B100BF002078
:100AB0000AE005A9095C4A0005AB411C595C42EA01
:100AC000E11105AA1154401C0F28F2DB9DF82310F8
:100AD0004906090E8DF8231000BF9DF8230080F011
:100AE00087008DF8230016E000BF00200AE005A96A
:100AF000095C4A0005AB411C595C42EAE11105AAB8
:100B00001154401C0F28F2DB9DF823104906090EF2
:100B10008DF8231000BF802104F20110D4F81421B5
:100B2000815405E0002104F20110D4F8142181540D
:100B3000D4F81401401CC4F814011028F2D300BFEB
:100B4000002009E004F20111095C05AA125C514081
:100B500004F201121154401C1028F3DB00BF00BF47
:100B600000200AE004F1F101095C04F20112125CB8
:100B7000514004F1F1021154401C1028F2DB00BF77
:100B8000102204F1F10101A809F0E0FF22462946F4
:100B900001A809F022FD1022002105A809F0F0FFAC
:100BA00009B030BD10B504461022002104F1F10057
:100BB00009F0E6FF0020C4F81401F02200212046CD
:100BC00009F0DEFF10BD70B504460D462246102127
:100BD000284609F02FFD70BD2DE9FF4104460F4660
:100BE0001546D4F8140100283BD0D4F81401C0F104
:100BF0001000A84204D2D4F81401C0F1100000E0A3
:100C000028460646B2B204F20111D4F8143158183D
:100C1000394609F09BFFD4F814013044C4F814019C
:100C2000D4F81401102801D3B54201D1BDE8FF81E9
:100C300000BF00200AE004F1F101095C04F2011296
:100C4000125C514004F1F1021154401C1028F2DBF7
:100C500000BF224604F1F101084609F0BEFC37440A
:100C6000AD1B21E000BF002008E004F1F101095CA8
:100C70003A5C514004F1F1021154401C1028F4DB9D
:100C800000BF102204F1F101684609F05FFF22461F
:100C90006946684609F0A1FC1022694604F1F1009A
:100CA00009F054FF1037103D102DDBD8AAB2394699
:100CB00004F2011009F04AFFC4F8145100BFB5E76F
:100CC0002DE9FC4104460E4617464FF001085C48EA
:100CD0000078C0F10F00C5B2A01E07286FD2DFE870
:100CE00000F004132A39506F860056480078A84255
:100CF00009DA544801780078401C524A1070524872
:100D000044544FF0000891E0681E4E49097888422B
:100D100010DD4C4801780078401C4A4A10704A485F
:100D20004454104601780078401C107046484654E0
:100D30004FF000087AE043480078A84209DA4148B9
:100D400001780078401C3F4A10703F4844544FF0EF
:100D500000086BE0681E3B490978884210DD39487D
:100D600001780078401C374A1070374844541046C8
:100D700001780078401C1070334846544FF000084A
:100D800054E0A81E2F490978884217DD2D480178C4
:100D90000078401C2B4A10702B48445410460178B0
:100DA0000078401C1070284846541046017800789E
:100DB000401C1070244847544FF0000836E025E0EE
:100DC000681E20490978884210DD1E4801780078A5
:100DD000401C1C4A10701C4844541046017800788E
:100DE000401C1070184846544FF000081EE015488B
:100DF0000078A84209DA134801780078401C114AAB
:100E00001070114844544FF000080FE00D480E4B8D
:100E10003A463146CDE90005204600F019F810B1F8
:100E20004FF0000801E04FF0020800BF00BFB8F12A
:100E3000000F02D10120054908704046BDE8FC8141
:100E4000E0000020DF0000204A0F0020DE0000202C
:100E5000F0B505460F46DDE905460021802D0BD192
:100E60002078B04207DA94F800C00CF1010020703D
:100E700003F80C50012100E000BF00BF09B10120C0
:100E8000F0BD0020FCE700002DE9F04105460E46CC
:100E900017464FF00008184890F90140012D27D15E
:100EA0001CB900201549086022E014480068402859
:100EB00005D34FF0010800200F49087001E04FF002
:100EC00000080E480068602812D30C48007800F033
:100ED0001F0001280CD1002C01DD601E44B23CB97A
:100EE000012E05D10C22064903482C3009F02EFEB4
:100EF0003C704046BDE8F08168120020D800002018
:100F0000CC120020014600201B4A92F90120052A3C
:100F100001DD052002E0184A92F90100302906DDC2
:100F2000421F002A00DD00E0002250B222E020290A
:100F300006DD021F002A00DD00E0002250B219E0A9
:100F4000182906DDC21E002A00DD00E0002250B292
:100F500010E0102906DD821E002A00DD00E00022DC
:100F600050B207E0082905DD421E002A00DD00E03E
:100F7000002250B270470000A012002008B500F017
:100F800075FA012007F092FC05F000FA01200346F3
:100F90000022114600902E2000F01AFE0120034688
:100FA0000022114600902F2000F012FE012003467F
:100FB000002211460090502000F00AFE0120034656
:100FC000002211460090512000F002FE002001494D
:100FD000087008BD9600002072B603480078401CD7
:100FE000014908707047000098000020044800780C
:100FF000401E034908700846007800B962B6704781
:1010000098000020FF2070471CB51648007840BBB0
:101010004FF4407002F004F84FF0E020006920F037
:1010200002004FF0E02108610F48006840F00070B6
:101030000D49086000F040F800F022FA07F0DAF9F4
:1010400004F0F4FB0020094903460246CDE90010F4
:101050000821012007F096FC05F0CAF9012001499A
:1010600008701CBD9600002004ED00E080969800FA
:1010700010B501F0B7FE00F0E7F94FF47A7000F018
:1010800026FB10BD012080F3138800BF00BFBFF313
:101090004F8F0748006800F4E06006490843001DD0
:1010A00003490860BFF34F8F00BF00BFFEE7000099
:1010B0000CED00E00000FA0508B53A480078002879
:1010C0006ED101200346002201460090042000F06A
:1010D0007FFD01200346002201460090052000F01C
:1010E00077FD01200346002201460090062000F013
:1010F0006FFD01200346002201460090072000F00A
:1011000067FD01200346002201460090082000F000
:101110005FFD012003460022014600900B2000F0F5
:1011200057FD012003460022014600900C2000F0EC
:101130004FFD01200346002201460090102000F0E0
:1011400047FD01200346002201460090112000F0D7
:101150003FFD01200346002201460090192000F0C7
:1011600037FD012003460022014600901A2000F0BE
:101170002FFD012003460022014600901B2000F0B5
:1011800027FD0121084600F091FA0121022000F01C
:101190008DFA0121042000F089FA0120014908702C
:1011A00008BD00009700002000BFFEE770B50446B0
:1011B0002B4800EBC400407900EB4000294931F88E
:1011C000205000260020264901EBC401497901EB9B
:1011D0004101244A02EB8101886023480078E8B984
:1011E00000F0CAFD06462148007800B90125B54245
:1011F00001DD284600E0304605461D48006868438A
:101200001B490968401A164901EBC401497901EBF1
:101210004101144A02EB8101886013E01348007811
:1012200001280FD112480068684311490968401A23
:101230000B4901EBC401497901EB4101094A02EB79
:10124000810188600A4800680A49098848430849BA
:101250000968401A0849096808440749086070BDD0
:10126000680F0020E4000020D6000020FC000020D1
:101270001C010020F2000020F800002038B50446D0
:1012800000BF1948007860B118480078022808DBD0
:10129000207B0090E378227CB4F90E1014A008F0B3
:1012A0001BFD00BF00250FE000BF0F48007840B1D4
:1012B0000E480078022804DBA068415D1BA008F0FE
:1012C0000BFD00BF681CC5B2207BA842ECDC00BF50
:1012D0000548007830B105480078022802DB15A0E7
:1012E00008F0FAFC00BF38BD6C0100206D01002041
:1012F0000D0A52656376446174613C3C2D5B20525B
:101300007373693A25642C20536E723A25642C203D
:10131000506F72743A25642C2053697A653A2564BB
:101320005D2C20446174613A5B000000202530325E
:1013300058000000205D0D0A000000002DE9FF4765
:1013400004460D4616461F464FF00509032020703F
:101350000D203070002038701EA30FCB8DE80F00D9
:101360004FF0FF0827E0684609F074FD00F0FF0821
:10137000B8F1000F12D000BF1A48007840B11A48E7
:101380000078022804DB4A46414618A008F0A4FC75
:1013900000BF4FF4FA6000F09AF90CE000BF11486A
:1013A000007830B110480078022802DB19A008F05C
:1013B00093FC00BF04E0B9F10000A9F10109D2D10A
:1013C00000BF0D2269462846FEF7B0FE002004B09B
:1013D000BDE8F08701FFFFFFFFFFFFFFFFFFFFFFFB
:1013E000FF0000006C0100206D0100202A2A2A2A3B
:1013F0002A2A2A2A2A2072656164206661696C3A69
:10140000256420616761696E2074727925640A3AE7
:10141000000000002A2A2A2A2A2A2A2A2A2072655B
:101420006164207375636365656420212100000099
:1014300010B5002002490870024800F0C9FA10BD3A
:10144000A6000020580C002010B54FF4106204498B
:10145000044800F0C1FA0221034801F0F5FB10BD79
:1014600030030020300C00209C00002010B500212B
:10147000084608F01DF9002008F00AFB10BD000026
:101480000EB500200090019001234FF4E1320221BB
:10149000029008F0C7F90B4800231A460221009079
:1014A000184608F03BFB08480078012809D10122C2
:1014B0001146002008F070F900220121034801F0D4
:1014C000F1FC0EBD65960008A40000209C000020E1
:1014D0002DE9F04790B082460E46914600200C90D0
:1014E0000D900E9000BF8DF83060604850F82600D7
:1014F000A0F5F430483840B1A0F5F430483840B198
:10150000A0F57430903840B100BF00208DF8310054
:1015100007E001208DF8310003E002208DF8310052
:1015200000BF00BF514951F82600FFF731F80746C8
:1015300088464F498A5D012101FA02F0FFF717F84A
:101540003A464346CDE90801FEF79DFF0022494B8C
:10155000CDE90A01FEF725FF04460D464FEA490092
:10156000FFF716F8CDE904014349097A4900A1F1D2
:101570000800FEF7FCFF074622462B46FEF711FF48
:10158000CDE90201DDE90423FEF764FE22462B4685
:10159000CDE90601FEF777FFCDE9080109F0E8F88B
:1015A000CDE90A01FFF720F83349097A884226D9A4
:1015B0004FEA4900FEF7ECFFCDE904012E49097A14
:1015C0004900A1F10800FEF7D2FF22462B46CDE9E3
:1015D0000201FEF7E6FE0746DDE90423FEF73AFEC8
:1015E00022462B46CDE90601FEF74DFFCDE9080165
:1015F00009F0BEF8CDE90A01FEF7F6FF01E01E484A
:10160000007A0D900D98FEF7C3FF074622462B4641
:10161000FEF7C7FE00224FF08043CDE90001FEF740
:1016200032FF22462B46CDE9040100201349FEF784
:10163000B8FECDE90201DDE90423FEF7ACFE00228D
:101640000F4BCDE90601FEF7A6FECDE9080109F032
:101650008FF8CDE90A01FEF7A8FF0E900CA807C885
:101660008AE8070010B0BDE8F087000090B10008DC
:1016700088B1000800408F40681200200000104030
:101680000000F03F30B50246002300200AE00124AC
:101690008440144001258540AC4201D15C1CE3B27A
:1016A000441CE0B28842F2DB184630BD29B1064A3C
:1016B00052680243044B5A6004E0034A5268824372
:1016C000014B5A6070470000002004E0704710B5DD
:1016D0000446204604F076F810BD000010B501F075
:1016E000A3FB012000F010F940B1012000F006F941
:1016F0000348006810B102490868804710BD000027
:10170000C002002010B501F08FFB4FF4806000F0A4
:10171000FBF848B14FF4806000F0F0F82848806A88
:1017200010B12749886A80474FF4006000F0ECF858
:1017300048B14FF4006000F0E1F82148C06A10B1F0
:101740001F49C86A80474FF4805000F0DDF848B167
:101750004FF4805000F0D2F81948006B10B11849CE
:10176000086B80474FF4005000F0CEF848B14FF4BA
:10177000005000F0C3F81248406B10B11049486B9C
:1017800080474FF4804000F0BFF848B14FF48040EC
:1017900000F0B4F80A48806B10B10949886B8047A3
:1017A0004FF4004000F0B0F848B14FF4004000F0B2
:1017B000A5F80348C06B10B10149C86B804710BD44
:1017C000C002002010B501F02FFB022000F09CF8B1
:1017D00040B1022000F092F80348406810B102497D
:1017E0004868804710BD0000C002002010B501F01D
:1017F0001BFB042000F088F840B1042000F07EF8C4
:101800000348806810B102498868804710BD000015
:10181000C002002010B501F007FB082000F074F8AA
:1018200040B1082000F06AF80348C06810B10249CE
:10183000C868804710BD0000C002002010B501F04C
:10184000F3FA102000F060F840B1102000F056F8D4
:101850000348006910B102490869804710BD0000C3
:10186000C002002010B501F0DFFA202000F04CF893
:1018700040B1202000F042F81F48406910B11E49D5
:1018800048698047402000F03FF840B1402000F018
:1018900035F81948806910B1174988698047802058
:1018A00000F032F840B1802000F028F81248C069FA
:1018B00010B11149C86980474FF4807000F024F8D6
:1018C00048B14FF4807000F019F80B48006A10B16D
:1018D0000949086A80474FF4007000F015F848B1D4
:1018E0004FF4007000F00AF80348406A10B1024952
:1018F000486A804710BD0000C0020020014908600E
:10190000704700001404014001460020034A126899
:101910000A400AB1012000E0002070471404014091
:10192000002123498279002A3AD00A4612680368C6
:101930009A430B461A600A1D126803689A430B1DEE
:101940001A60027911440A6803681A430A60184A47
:101950000832126803689A43154B08331A601A1D3F
:10196000126803689A43124B0C331A604279102AAA
:101970000ED11A1F126803681A430D4B08331A6000
:101980001A1D126803681A43094B0C331A600DE0E4
:101990000749427911440A6803681A430A6005E05E
:1019A000027911440A6803689A430A60704700008C
:1019B0000004014010B50146CA880B891A448B887F
:1019C000D21A0B8992FBF3F403FB142290B210BDE0
:1019D00000218180C1807047016000238380C38023
:1019E0000281704710B502469088D388984201D191
:1019F000012000E0002068B993881068C05C08707E
:101A00009088401C138990FBF3F403FB1400908032
:101A1000002010BD4FF0FF30FBE710B50246D08824
:101A2000401C138990FBF3F403FB14009388984245
:101A300001D1012000E0002060B9D3881068C154B2
:101A4000D088401C138990FBF3F403FB1400D08072
:101A5000002010BD4FF0FF30FBE7F0B502460B460B
:101A6000002100240025002000BF35E0012606FAF1
:101A700001F41E6806EA0405A5422CD110684F0047
:101A80000326BE40B0431E794F00BE403043106075
:101A90001E79012E02D01E79022E12D190684F00BD
:101AA0000326BE40B0435E794F00BE403043906095
:101AB000908801268E40B0439E798E40B6B2304366
:101AC0009080D0684F000326BE40B043DE794F00BF
:101AD000BE403043D060491C1029C7D3F0BDF0B5DB
:101AE000002300244D07ED0E02FA05F3CE1000F19D
:101AF000200555F826504E07F70E0F26BE40B54379
:101B0000CF1000F1200646F82750CE1000F1200536
:101B100055F8265045EA0304CE1000F1200545F89B
:101B20002640F0BD41837047018370470246002183
:101B300011E00B4850F8310090420AD8084B481C7D
:101B400053F83000904204D9184600EBC1000079E8
:101B50007047481CC1B21529EBD300BFFEE7000057
:101B600094B200080220094A1278012A0BD1084ACF
:101B7000116805E00A79012A01D1012002E0096813
:101B80000029F7D100E00120704700005900002033
:101B90005C000020014800787047000060000020D1
:101BA00070B505460E46002404E029190348FFF7E6
:101BB00019FF641CB442F8DB70BD0000580C002013
:101BC00010B50248FFF7F6FE10BD0000580C0020CB
:101BD0002DE9FF5F05460C4617469846DDF838901C
:101BE000C5F3071A05F00F0B1F4800EB8A20019080
:101BF000012000FA0BF080B20090012000FA0AF6F2
:101C00001A480068304040B90121304603F0A2F87C
:101C100016480068304315490860012C0CD1B9F111
:101C2000000F04D1DDE90010FFF77CFF0BE0DDE9D8
:101C30000010FFF779FF06E0022C04D14A4659460E
:101C40000198FFF74CFF009802908DF80C4003209C
:101C50008DF80D008DF80E708DF80F8002A9019897
:101C6000FFF7FBFEBDE8FF9F00000240540000208C
:101C70002DE9FE4F06460D4617469846DDF8309092
:101C8000C6F3071A06F00F040120A0401FFA80FBDC
:101C9000224840F824900121084603F08BF82146A1
:101CA000504606F097F8CDF800B000208DF80400FB
:101CB0001DB908208DF805000DE0012D03D10C2081
:101CC0008DF8050007E0022D03D110208DF80500E6
:101CD00001E000BFFEE701208DF806006846FFF72F
:101CE0001FFE052C04DAA01DC0B28DF8080008E024
:101CF0000A2C03DA17208DF8080002E028208DF85E
:101D000008008DF809708DF80A8001208DF80B000D
:101D100002A801F049F9BDE8FE8F0000C0020020D2
:101D20002DE9F04704460D46C4F3071604F00F09E9
:101D3000094800EB8627012000FA09F01FFA80F815
:101D400025B941463846FFF7EDFE03E041463846E7
:101D5000FFF7EAFEBDE8F0870000024002A007F0AE
:101D6000BBFF00BFFEE7000020486172646661753A
:101D70006C7421200D0A00002DE9F0410024104868
:101D8000006806F077FF07463846FEF701FC054677
:101D900000220C4BFEF754FC01D214240CE0384610
:101DA000FEF7F6FB05460022074BFEF749FC01D281
:101DB000C82401E04FF4FA642046BDE8F081000039
:101DC0000001002040774B41FCE1824170477047A1
:101DD000704770477047024610468A4201DD13463D
:101DE00000E00B461846704700B587B02E4A07CA78
:101DF00001AB07C30D208DF8100001A8059004A8C1
:101E000000F072FC0C208DF8100001A8059004A8C9
:101E100000F06AFC02208DF8100001208DF81400FB
:101E200004A800F061FC07208DF8100001208DF857
:101E3000140004A800F058FC00208DF810008DF864
:101E4000140004A800F050FC0E208DF810000120B2
:101E50008DF8140004A800F047FC14208DF8100041
:101E600000208DF8140004A800F03EFC15208DF829
:101E7000100000208DF8140004A800F035FC172095
:101E80008DF8100002208DF8140004A800F02CFC3E
:101E900016208DF8100002208DF8140004A800F020
:101EA00023FC07B000BD00008CB000082DE9F0470E
:101EB00086B004468946012C29D100BF30480078FD
:101EC00098B13048007802280FDB06F0CFFE82463A
:101ED000FEF75EFB074600222B4BFEF7D4FA0546C1
:101EE0002A460B4629A007F0F7FE00BFFFF76EFF5A
:101EF00000208DF804002E4802902E4903912E49AF
:101F000004918DF8149001A800F00AFD34E003203C
:101F10008DF80C000020049003A800F0E5FB0420DD
:101F20008DF80C000020049003A800F0DDFB0520D4
:101F30008DF80C002148049003A800F0D5FB062082
:101F40008DF80C001E48049003A800F0CDFB012082
:101F50008DF80C008DF8100003A800F0C5FB00BF41
:101F60000748007830B107480078022802DB15A046
:101F700007F0B2FE00BF00BF06B0BDE8F08700006A
:101F80006C0100206D01002000408F400D0A204FA1
:101F9000544141206A6F696E696E67200D0A2054B2
:101FA000696D653A252E316673200D0A0000000028
:101FB000040000200C000020140000202400002059
:101FC000340000200D0A20414250206A6F696E20C3
:101FD0000D0A0000034603207047014603207047A6
:101FE0002DE9F04707460E4690461C46DDE9095AA2
:101FF000DDF820901C4880F8059001468C71200A7D
:10200000C871200C0872200E48728D72280AC8729E
:10201000280C0873280E4873CE731448FEF7C2FDCF
:1020200041461248FEF7CFFD10220F490F48FEF738
:10203000D3FDF2B239460D48FEF7CEFD0B490C48F0
:10204000FEF7D3FC0A48C07800060949897840EABF
:1020500001400749497840EA0120054909780843C9
:10206000CAF80000BDE8F0872C010020B41400205D
:10207000A01300202DE9FF4704468A461CB903201F
:1020800004B0BDE8F087206818B1606808B1A068A6
:1020900008B90320F4E76A4804606A48C0F800A061
:1020A00000206949087069490870694908606949F0
:1020B0000870012068490870002068490870684964
:1020C000086068490860684908700220674908701C
:1020D000002048700A2048600620087240F6B83098
:1020E000C8604FF47A7008614000486141F288305E
:1020F000886141F27070C861012081F820000020E1
:1021000081F821005A4903C9CDE902015748DDE9A8
:102110000212C0E909124FF6FF7054498885014642
:102120005248C185018641868186C1864FF00009EB
:1021300021E04846FEF72CFA074600224D4BFEF7F9
:1021400030F905464FF0C0424B4BFEF783F8CDE91E
:102150000001FEF749FA494941F83900502001EBE6
:10216000C90108710020454901EBC901487109F115
:10217000010000F0FF09B9F1600FDADB3B4840686D
:102180003F4948603948007A08723848C068C860DA
:1021900036480069086135484069486133488069BC
:1021A00088613248C069C861304890F8200081F8E1
:1021B000200003F01BFA33A23649374806F064FDCD
:1021C0004FF47A71344806F05BFE34A23649374842
:1021D00006F05AFD36A23949394806F055FD39A2B4
:1021E0003B493C4806F050FD3BA23E493E4806F0C4
:1021F0004BFD06F03BFD3D4908603D483D49086008
:102200003D4888603D4808613D4848603D48C86099
:102210003D480168374888473B494869804705463B
:1022200008F008FF0120394908703748816D3748A8
:10223000007888473449C86A8047002020E70000BA
:10224000080100200C01002023010020C400002010
:10225000040100202001002021010020C6000020F0
:10226000F4000020F8000020FC000020A012002054
:1022700058B20008006A08413508BC41680F0020C8
:10228000681200206D616320737461746520636857
:1022900065636B00B9300008D812002074782064A0
:1022A000656C61796564000019410008F012002036
:1022B00072782077696E646F772031006140000882
:1022C0000813002072782077696E646F77203200DF
:1022D000CD4000082013002061636B2074696D6598
:1022E0006F75740055300008501300200001002065
:1022F000713E00083C0C002085340008153D0008A4
:10230000E93F0008DD3D00082CB10008C5000020B1
:102310002DE9F04104460D4616461F461048FEF7CB
:1023200041FC31460E48FEF74EFCEAB221460C480D
:10233000FEF752FC0A490B48FEF757FB0948C078E4
:1023400000060849897840EA01400649497840EA90
:1023500001200449097808433860BDE8F081000095
:10236000B4140020A01300202DE9FF4184B00546DD
:102370000E461C460E9F0DF11808F02200211E4843
:1023800008F0FEFB1C4A1021284608F053F91022E1
:102390000021684608F0F4FB01208DF800000622B9
:1023A00031460DF1010008F0D1FB022241460DF14A
:1023B000070008F0CBFB104A2146684608F00DF9EB
:1023C00010220021684608F0DBFB02208DF8000097
:1023D000062231460DF1010008F0B8FB0222414609
:1023E0000DF1070008F0B2FB034A3946684608F0D1
:1023F000F4F808B0BDE8F081C01300202DE9F041E9
:1024000007460D4616461C46F02200210B4808F0F0
:10241000B7FB0A4A1021304608F00CF9074A21465A
:10242000384608F0DAF8102D06DB044A04F11001F2
:1024300007F1100008F0D1F8BDE8F081C0130020CA
:102440002DE9F84F04464FF002084FF000094FF015
:10245000000A14B90320BDE8F88F4148007800F065
:10246000010028B93E48007800F01000102801D182
:102470000120F0E70020009014220021394808F0E4
:102480007FFB012037494870207820B1012814D003
:10249000032837D126E04FF0010A012032490870A5
:1024A0009DF8000020F0E0004030009094F8049087
:1024B000A668A78994F90E5025E04FF0010A012083
:1024C0002A490870E07B284908709DF8000020F038
:1024D000E0008030009094F80490A668A78994F9F1
:1024E0000E5010E04FF0010A01201F4908709DF8BE
:1024F000000020F0E000E03000906668278994F941
:102500000A5000E000BF00BFBAF1010F25D1184802
:10251000007850B905220021284607F0D3FB10B1FE
:102520001448457001E0032095E73B463246494692
:10253000684605F03DFD8046B8F1000F0AD12078CD
:10254000084908700C48007820F00100401C0A4936
:10255000087002E000200949087040467BE700004F
:102560000401002080130020180100201901002020
:10257000D70000206812002023010020DC0000208A
:102580000146002209B90320704708781D286ED241
:10259000DFE800F00F13171B1F2326292D31343AD3
:1025A0004440484D5155595D61656E6972767A7E39
:1025B00082003E480078087174E03D480078087158
:1025C00070E03C48007808716CE03B480068486067
:1025D00068E03A480068486064E03948486061E073
:1025E000384848605EE03848007808715AE037485B
:1025F0000078087156E03648486053E0354BD3E91F
:102600000903C1E901034DE0334BD3E90903C1E9F3
:10261000010347E030482C30486043E02D482C301F
:1026200048603FE02B4890F8200008713AE02948C4
:10263000C068486036E027480069486032E02548B5
:10264000406948602EE02348806948602AE02148BC
:10265000C069486026E020484078087122E01D48A3
:10266000407808711EE01C48007808711AE017E0F5
:1026700018480078087115E018480068486011E0B3
:102680001748006848600DE016480068486009E097
:1026900010484068486005E00E48007A087101E083
:1026A000022200BF00BF10466EE70000C4000020F9
:1026B000D6000020D7000020B8000020BC00002079
:1026C0002C0D00203C0D0020C5000020C60000207D
:1026D000680F002068120020A0120020CC0000200B
:1026E000D0000020C000002070B5044600250CB9C1
:1026F000032070BD7A48007800F0010008B1012085
:10270000F7E720781D286ED2DFE800F00F272B2F87
:102710003337414B54E4585E70647B888C909498B6
:102720009CA9C3B6D0D4E4D8DE0020796D490870E6
:102730000846007820B1012806D002280BD104E019
:102740006949C86A804706E005E0002067490870CB
:1027500001F0BCFC00BF00BFBEE0207964490870F6
:10276000BAE0207963490870B6E0634960680860A0
:10277000B2E0624960680860AEE0606828B110228B
:102780005F48616808F0E2F900E00325A4E06068B2
:1027900028B110225B48616808F0D8F900E00325F1
:1027A0009AE02079584908704F48816D5648007862
:1027B000884791E02079554908708DE05448D4E964
:1027C0000112C0E9091287E05248D4E90112C0E9B8
:1027D000091281E0606838B10C224E482C306168E3
:1027E00008F0B4F901E075E0032575E0606830B1E8
:1027F0000C2247482C30616808F0A8F900E0032556
:102800006AE02079012807DB20790F2804DC207991
:102810003F4981F8200000E003255DE03C49606805
:10282000C86059E03A496068086155E03849606815
:10283000486151E03649606888614DE0344960681C
:10284000C86149E094F904000522002107F03AFA32
:1028500018B120792F49487000E003253CE094F935
:1028600004000522002107F02DFA18B1207928492B
:10287000487000E003252FE094F9040007220021AE
:1028800007F020FA18B120792249087000E00325EA
:1028900022E094F904000722002107F013FA18B18E
:1028A00020791B49087000E0032515E01A4960688B
:1028B000086011E01949606808600DE0154960681A
:1028C00048601349486007E02079124908721049AE
:1028D000087201E0022500BF00BF284609E700009A
:1028E00004010020C40000202CB10008DC000020FE
:1028F000D6000020D7000020B8000020BC00002037
:102900002C0D00203C0D0020C5000020C60000203A
:1029100068120020A0120020CC000020D00000206F
:1029200038B5044602250CB9032038BD4C48007860
:1029300000F0010008B10120F7E70C22002149480E
:1029400008F01EF9012047494870207830B101286D
:1029500046D0022855D0032874D161E04048007861
:1029600000F01000102801D10120DEE7606828B1D6
:10297000A06818B1E06808B1207C08B90320D4E74A
:102980003948007820F0080008303749087020786E
:10299000344908703549606808603549A0680860A6
:1029A0003449E0680860207C3349087000203349CE
:1029B000087000909DF8000020F0E000009002F008
:1029C00015FE2E480078401CFEF79CFA2C494870F2
:1029D00000231A461946684605F0EAFA054632E031
:1029E0002148007820F0080008301F49087020783E
:1029F0001C490870002211460220FEF761F90546C5
:102A000021E02078174908701748007820F0080066
:102A1000083015490870A08805F0E4FE054612E06C
:102A20002078104908701048007820F0080008301D
:102A30000D490870227BA088A16805F017FF0546A4
:102A400001E0FFE700BF00BF45B100200D4908705D
:102A50000548007820F0080003490870284664E71C
:102A6000040100209413002023010020A80000206E
:102A7000AC000020B0000020210100202001002037
:102A800068120020DC0000202DE9FE4F04460D46B0
:102A900016461F46DDE90D9ADDF830803B4632468A
:102AA000294620468DE8000700F002F8BDE8FE8FB9
:102AB0002DE9F05F81460D4693461E46DDF82C80D9
:102AC00000274FF0010AF02200212E4808F058F8A4
:102AD0002C4A1021584607F0ADFD2B490A98487141
:102AE0008E71300AC871300C0872300E487281F84D
:102AF0000A804FEA1820C8724FEA184008734FEA5C
:102B00001860487320E0204981F80FA00AF1010005
:102B10001FFA80FA1B4A1D491B4807F05EFD00247E
:102B20000AE0381919F800001849095D48403A19B7
:102B30000C998854601C84B2102CF2DBA5F11000B3
:102B400085B207F11000C7B2102DDCDA002D16DDBA
:102B50000D4981F80FA00B4A0C490B4807F03DFDC9
:102B600000240AE0381919F800000849095D4840B6
:102B70003A190C998854601C84B2AC42F2DBBDE86F
:102B8000F09F0000C01300203C010020B013002083
:102B9000F8B506460C462248407800902148007857
:102BA000214909780844C5B20CB90320F8BD1F4873
:102BB0000078012802D10020009005E06A4600213B
:102BC0001A480078FEF760F919480078012805D105
:102BD00018489DF90010405C607004E016489DF9AB
:102BE0000010405C60706078A84203DB6078401B96
:102BF000207001E00920D9E700229DF9001030463D
:102C000007F044F808B90820D0E72A469DF90010DB
:102C1000304607F03BF808B90920C7E70020C5E7B0
:102C2000A0120020DF000020E0000020D7000020DC
:102C3000C6000020AEB10008A8B100080149087024
:102C400070470000D500002070B504460E46FEF720
:102C5000C3F926710D48056805E0A54202D1FEF7CB
:102C6000C5F970BD2D68002DF7D10848006820B95E
:102C7000002020600548046004E0044800682060EB
:102C800002480460FEF7B2F900BFEAE75C000020EA
:102C900010B50446607858B9207820B1012803D0D7
:102CA000032803D101E002E001E000E000BF00BF23
:102CB00001200249087006F0C5F910BD4700002048
:102CC00010B50446607800B110BD207830B10128FD
:102CD00011D0022829D0032834D119E000BF26489A
:102CE000007830B125480078042802DB24A006F0E3
:102CF000F3FF00BF27E000BF1F48007830B11F4836
:102D00000078042802DB24A006F0E6FF00BF1AE0EA
:102D100000BF1948007830B118480078042802DB59
:102D200022A006F0D9FF00BF0DE000BF12480078D6
:102D300030B112480078042802DB22A006F0CCFF54
:102D400000BF00E000BF00BF607901280CD122481D
:102D50000078022808D0214806F0EAF8012020492E
:102D6000087002201C490870607B012802D12046AF
:102D7000FEF784FA00BFA7E76C0100206D01002078
:102D8000204D4350535F554E434F4E4649524D459B
:102D900044200D0A00000000204D4350535F434F74
:102DA0004E4649524D4544200D0A0000204D4350E7
:102DB000535F50524F5052494554415259200D0AC9
:102DC00000000000204D4350535F4D554C54494383
:102DD000415354200D0A0000000000209002002002
:102DE0004500002010B56FF001000F21002807DA20
:102DF0000A07140E084A00F00F031B1FD45403E007
:102E00000A07130E054A135400BF0548007810B98D
:102E100001200449087010BD18ED00E000E400E056
:102E2000590000206000002010B5FEF7D5F8012001
:102E300001F0EAF910B1012001F0BCF9174800785F
:102E4000022825D1012002F075F800BF312002F0E0
:102E50004FF80028FAD0012002F07CF800BF39209A
:102E600002F046F80028FAD0032002F0A7F800BFCD
:102E700002F058F80C28FBD1002001F0DDF9012008
:102E800001F0CEF90021022000F0D4F8FEF7BCF8E2
:102E9000002003490870FEF7A9F810BD600000206B
:102EA000580000202DE9F04104460F4615460E4813
:102EB0000078012815D1FEF78FF82771FEF752FE32
:102EC00006460A480078B04205D008480670012D31
:102ED00001D105F02DFF002005490870FEF786F8A6
:102EE00000BFBDE8F0810000590000206000002014
:102EF0005800002000BFFEE710B50446207810B14E
:102F0000012828D126E06078A0B91448007810B9CB
:102F10000020FFF793FE02201149087000BF1148FE
:102F2000007830B110480078022802DB0FA006F0CC
:102F3000D3FE0EE0124805F0ADFF00BF094800784F
:102F400030B109480078022802DB0EA006F0C4FE6A
:102F500000BF01E000E000BF00BF10BD4600002040
:102F6000000000206C0100206D010020204A6F69E4
:102F70006E205375636365737321200D0A00000092
:102F8000A8020020204A6F696E206661696C656442
:102F90002C20676F20746F20736C656570200D0A9C
:102FA000000000007047000070B5002100230F22D0
:102FB000C4781CB3174C246804F4E064C4F5E064DE
:102FC000C4F30721C1F10404E3B20A4144789C40F0
:102FD000E1B28478144021430C07210E0E4C057891
:102FE0006155047804F01F050124AC4005786D118B
:102FF000AD0005F1E025C5F8004109E0047804F0D2
:103000001F050124AC40054D0678761145F8264091
:1030100070BD00000CED00E000E400E080E100E0A5
:1030200002490143024A1160704700000000FA059E
:103030000CED00E029B1064A12680243044B1A6005
:1030400004E0034A12688243014B1A607047000093
:1030500010ED00E010B50D4805F06AFF0C4800784F
:10306000012807D10B4908700B48006820F00400C4
:103070000949086009480078022806D10848007804
:1030800020F0100010300649087010BD50130020C9
:10309000DC0000201A01002004010020C4000020F0
:1030A000230100200120024908700249087070477E
:1030B000000000205000002010B5DC4805F038FF6B
:1030C0000024DB480078C0F30010002875D0D948F0
:1030D000007800F0400040280AD1D648006820F06F
:1030E0004000D44908600846006820F001000860EC
:1030F000CF480078C0F3C00020B9CD48007800F078
:103100000100C0B1CC484078022803D0CB484078B9
:10311000022810D1C748006820F00100C5490860A6
:103120000020C7490870C7480078C349487100208B
:10313000087188600124C4480078002872D1002CEE
:1031400070D1BB480078C0F3C00028B9B8480078F7
:1031500000F00100002865D0B5480078C0F3C00039
:1031600060B3B648007848BBB8480078B349887265
:103170000846407858B90020B5490860B54908703C
:10318000AC48006820F00100AA4908604AE0AF4856
:103190000078B1490978884206DBA648006820F02B
:1031A0000100A44908603DE0A148007820F010002B
:1031B0009F49087000F0B0FF34E099E0FFE7A748AE
:1031C00090F82000A3490978884204DD98480078E7
:1031D000C0F34000F0B196480078C0F3400038B921
:1031E0000020974908709E480068401C9C49086070
:1031F0000020984908709B48007820B994480068DE
:10320000401C934908608B48006820F00100894900
:10321000086007E08648007820F0100084490870B4
:1032200000F07AFF82480078C0F3400000B3824883
:103230000079012805D0834800788B4909788842B5
:1032400016DD0020894908707F490870854800789C
:1032500020B97F480068401C7D49086079480078A3
:10326000754948717348006820F001007149086091
:103270007E48007801287AD16E48007800F010006E
:10328000002874D1794908706E4800787649097829
:1032900088424EDA6B48007808284ADC6948007892
:1032A000401C6849087072490978012917D165499D
:1032B000087800EBD0714910A0EB410101290ED133
:1032C000664890F90100401E002804DD634890F92B
:1032D0000100401E00E0002040B26049487004F048
:1032E00099FD30B95248007820F01000504908701C
:1032F0003DE00820504948700020514908704D4871
:10330000006820F001004B49086000204E49087019
:10331000494908714B480078487150484078887096
:103320005048007818BB4A480068401C484908606B
:103330001DE00C224F4949482C3007F007FC3D485E
:10334000006820F001003B49086000203C490870FB
:103350003D490870384908713A4800784871414839
:10336000007820B93A480068401C39490860314863
:10337000007800F00200022805D12E48006820F0F5
:1033800002002C4908602B48006830BB28480078B0
:1033900000F0010050B138480068016826488847AD
:1033A0002348007820F00100214908702048007867
:1033B000C0F3C00050B13048006881681F4888479A
:1033C0001B48007820F00800194908701848007858
:1033D00020F010001649087007E04FF47A71134886
:1033E00005F04EFD114805F055FD11480078C0F379
:1033F0004000D0B121480078022801D100F066FEDB
:103400000B480078C0F3800020B91B480068416871
:103410001B4888470648007820F0040004490870DB
:103420000846007820F00200087010BDD812002075
:1034300023010020040100208013002094130020A9
:10344000DF00002019010020DC0000202001002006
:10345000CC000020F0000020210100206812002094
:10346000D8000020D4000020180100201A010020FC
:10347000D7000020CC12002008010020C40000204A
:10348000681300202DE9FF4F93B004460D4600203D
:103490001090814683468246FF200F9000200E90B8
:1034A0000D9080460C900B900A9000270026FE4855
:1034B0000990FE480890002007900690FC4908718A
:1034C000FC491598C88116980874FB480078487420
:1034D0000020C870887048718860087348738874C9
:1034E00048610870F549C86A8047F54805F020FD35
:1034F000494609F10109605C12909DF848004009B5
:10350000012806D003287DD005287CD007287BD150
:103510007CE3EC480078012806D1E649487001F0C8
:103520007BF917B0BDE8F08F681E81B2E64BE74823
:103530000268601CFEF762FF9DF84800E249491EE0
:103540000870281F81B20DABE0480268DE48401EBB
:10355000FEF7DEFE281FDC49491E085C40EA080829
:10356000E81E085C48EA0028A81E085C48EA0048F3
:10357000681E085C48EA00680D9880457ED1CB48FB
:10358000C94B0090D2480288491CD0480068FEF719
:10359000EBFECD48401E0079CE490860CA48401E67
:1035A0004079096841EA0020CA490860C648401EBF
:1035B0008079096841EA0040C6490860C248401E57
:1035C000C079C5490860C048401E007A096841EAD0
:1035D0000020C1490860BC48401E407A096841EAA1
:1035E0000040BD490860B848401E807A096841EA39
:1035F0000060B9490860B448401E40780590B24860
:10360000401E02E0A9E0A7E018E38178059840EAAF
:1036100001200590AC48401EC178059840EA014061
:103620000590A948401EC07AC0F30210AB4981F84A
:103630002100A548401EC07A00F00F01A74880F87D
:103640002810A148401E007B00F00F00A34908612C
:103650000846006908B901200861A0490869FCF71B
:1036600097FF00229E4BCDE90001FCF79AFECDE9C1
:103670000201FCF7B9FF9949086100E05CE00869C4
:10368000FCF786FF0022964BCDE90001FCF7E2FD36
:10369000CDE90201FCF7A8FF90494861681E102897
:1036A0003DDD50208DF810008E48006840F020006D
:1036B0008C490860032002900020019025E00198C9
:1036C0000D308149491E095C01980E307E4A521E18
:1036D000105C41EA002101980F30105C41EA004083
:1036E000642148430390039820B102A807C8FEF75D
:1036F00071FC02E00298FEF770FC0298401CC0B218
:1037000002900198C01CC0B2019002980828D6DB34
:103710007448006820F020007249086000BF002053
:1037200071494870012067490870704840786B49BA
:103730004870FEF74DFB0EE006206B49487000BF55
:103740006B48007830B16B480078022802DB6AA031
:1037500006F0C2FA00BF77E200BF4846411C01F004
:10376000FF0914F800B04846411C01F0FF09205C35
:103770004BEA002B4846411C01F0FF09205C4BEA54
:10378000004B4846411C01F0FF09205C4BEA006BEE
:1037900051480068834519D05C4806680BE03068E2
:1037A000584507D101200790301D0990103008902E
:1037B000776A02E0F66A002EF1D100BF079868B977
:1037C0000A203C49487001F027F8AAE6002007903B
:1037D00035480990354808904D4807684846411CCF
:1037E00001F0FF09205C11904846411C01F0FF09DF
:1037F000205C0C904846411C01F0FF09215C0C98AC
:1038000040EA01200C909DF8440000F00F0000F108
:10381000080A281F205C40EA0808E81E205C48EAE5
:103820000028A81E205C48EA0048681E205C48EA80
:103830000068B8B20B90DDE90B10401A80B20A9014
:103840000A98B0F5004F13DA0A9807440DA8012131
:10385000CDE900170290281F81B25B462046099AE5
:10386000FEF7BEFB0D9880451CD10120069019E0A3
:1038700007F580300A9909B2084405900DA9012284
:103880000598CDE900200291281F81B25B462046B1
:10389000099AFEF7A5FB0D98804502D101200690FC
:1038A000059F00BF0A9835E02C0D00203C0D00203C
:1038B0008013002068130020220100202CB1000892
:1038C00020130020D60000204C0E0020B000002065
:1038D000B4000020B8000020BC00002068120020C6
:1038E00000408F400401002094130020A01200200B
:1038F0006C0100206D010020205278204D6963206A
:103900004572726F7221200D0A000000C000002075
:10391000D0000020B0F5804F07DB0920D349487064
:103920000846476100F078FFFBE5069801286FD153
:10393000FEF74DFA0020CD494870079888709DF831
:103940004400C0F3001048710020886008730846E6
:1039500047610020C6494870C6490860C6490870DA
:10396000079801283FD10220C0490870706AB84208
:1039700008D1706A30B1072048700846476100F0EE
:103980004BFFCEE57762BD48007801282AD1B06AA6
:10399000401CB06200BFBA48007818B3B94800783C
:1039A00002281FDB716A481CFCF7DCFD0190716A7C
:1039B000491CB26A881AFCF7D5FD00900199FCF702
:1039C0000BFCB1490290FCF7D5FB0390FCF725FEF8
:1039D000CDE90401CDE90001D6E90902411CABA003
:1039E00006F07AF961E09DF848000521B1EB501F1F
:1039F0000FD10120B24908709C490870B148006895
:103A0000B84219D1AF480068B0B10120109013E05E
:103A1000E8E00020AA49087094490870A9480068A5
:103A2000B84209D1A748006830B10720487008465D
:103A3000476100F0F1FE74E5A24807608F48007806
:103A4000012832D1A0480068401C9F49086000BF8F
:103A50008B48007840B38B480078022824DB9948D3
:103A60000068401CFCF77EFD964901900968491CDE
:103A7000954A1268881AFCF775FD00900199FCF7C9
:103A8000ABFB81490290FCF775FB0390FCF7C5FD89
:103A9000CDE90401CDE900018B480268894801683D
:103AA000491C8AA006F018F900BF71480078012867
:103AB00008D19DF84400C0F3401030B100208E4979
:103AC000087002E000208C490870281FA0EB0A0053
:103AD000002850DD5046411C01F0FF0A205C0F9089
:103AE000281FA0EB0A00C0B20E9060490F98C87062
:103AF0000F98D8B99DF8440000F00F0098B97F489E
:103B00000121CDE90017029004EB0A005B46099AF7
:103B10000E99FEF7B9FF1698C3B2002177480E9AA6
:103B200000F0B6FE34E00120109031E09DF8440032
:103B300000F00F00002808DD1698C3B2AAF10100BA
:103B4000C2B20821204600F0A3FE6C480121CDE955
:103B50000017029004EB0A005B46089A0E99FEF7E4
:103B600093FF1098A0B96548404988600E98087383
:103B7000012048730CE09DF8440000F00F0000287D
:103B800006DD1698C3B252460821204600F080FE9A
:103B90001098C8B99DF84400C0F3401040B101200E
:103BA0003349087131498874554805F0C1F90BE073
:103BB00000202F49087153480078534909788842FA
:103BC00002DD4F4805F0B4F95048007820F00200BB
:103BD000801C4E4908700978109860F382014B48A8
:103BE000017012E00B202149487000F015FE00BF63
:103BF0002348007838B123480078022803DBAFF26D
:103C0000083006F069F800BF8BE41DE004EB090101
:103C10002A463A4806F09AFF03201449087000200B
:103C2000487036488860A5EB09000873374800786B
:103C300020F00200801C3549087005E001200B4986
:103C4000487000F0E9FD00BF00BF3048007820F068
:103C5000100010302D49087001212D4805F010F991
:103C60002B4805F017F900BF5BE400006813002043
:103C700080130020D8000020E00000202401002054
:103C80006C0100206D0100200000C842204D756CC1
:103C9000746963617374206E6565642025642070A7
:103CA00061636B732C5278202564207061636B73A1
:103CB0002C6C6F737320252E32662525200D0A008B
:103CC000DD000020D000002028010020204E656586
:103CD00064202564207061636B732C527820256406
:103CE000207061636B732C6C6F737320252E3266AA
:103CF0002525200D0A000000DF0000204B0E0020CB
:103D00005013002019010020180100202301002079
:103D1000D812002010B500BF2148007830B12148EA
:103D20000078022802DB20A005F0D6FF00BF224861
:103D30000078022803D02149C86A804701E000F0DA
:103D4000C5F91F480078C8B91E480078012802D17B
:103D500004201D49487004201C4948701C48006814
:103D600004F088FF1B490968884218D31A48007874
:103D700020F0100010301849087010E01148007849
:103D8000012802D105201049487005200F494870CC
:103D90001148007820F0100010300F49087010BD55
:103DA0006C0100206D010020204F6E2052782045CC
:103DB00072726F72200D0A00C40000202CB100083E
:103DC00022010020DC00002080130020941300203A
:103DD000F4000020140100202301002010B500BFD2
:103DE0001548007830B115480078022802DB14A08D
:103DF00005F072FF00BF17480078022803D016496B
:103E0000C86A804701E000F061F914480078012891
:103E100010D113480078012802D1032011494870BD
:103E20000320114948701148007820F0100010302C
:103E30000E49087010BD00006C0100206D010020CB
:103E4000204F6E2052782054696D656F7574200D77
:103E50000A000000C40000202CB10008220100204C
:103E6000DC00002080130020941300202301002098
:103E700070B504F0FBFE044600BF4248007830B144
:103E800041480078022802DB40A005F025FF00BF72
:103E90004348007810B9FDF79DFF01E0FDF799FF59
:103EA00040480078022803D03F49C86A804701E0B3
:103EB00000F00CF93D48007801282DD13C480168FC
:103EC0003C4804F0DDFF3B4804F0E4FF354800784F
:103ED000022807D038480168384804F0D1FF374835
:103EE00004F0D8FF2F480078022803D03448007827
:103EF000012828D14FF47A71484207F00BF82E4977
:103F0000096801F5FA61451829462E4804F0B8FF02
:103F10002C4804F0BFFF16E000202B494870032016
:103F20002A4948702A48007830B92948007820F09A
:103F30000100401C264908702548007820F0100038
:103F400010302349087023482349097800EBC10049
:103F5000407900EB4000214901EB8000446020489B
:103F600004601D480078FDF721F91548007838B93C
:103F70000020154948701B480078401C19490870FA
:103F800070BD00006C0100206D0100202053656EA3
:103F900064204672616D6520446F6E65200D0A00D5
:103FA000D6000020C40000202CB10008D50000205D
:103FB000100100200813002014010020201300200D
:103FC000DC000020501300208013002094130020F8
:103FD00023010020680F0020FD000020E4000020E5
:103FE000F4000020F000002010B500BF1048007859
:103FF00030B110480078022802DB0FA005F06CFEFB
:1040000000BF12480078022803D01149C86A8047CF
:1040100001E000F05BF802200E4948700E4948703C
:104020000E48007820F0100010300C49087010BDC8
:104030006C0100206D010020204F6E205478205428
:10404000696D656F7574200D0A000000C4000020C2
:104050002CB10008801300209413002023010020BD
:1040600038B5134804F064FF002012490870124864
:104070000078022802D11149086B80471048007867
:10408000302190FBF1F201FB120040F6354148432C
:104090000C4901EB8014002000900B48808883B20B
:1040A0000948427890F90010204601F0D3FD38BD50
:1040B0000813002022010020C40000202CB10008B9
:1040C000FD000020E0F8D11D3813002038B5002491
:1040D0000C4804F02DFF0C480078022800D1012480
:1040E0000A4D00942D8AABB2084D6A7B95F90C10ED
:1040F000074D686A01F0AEFD10B101200549087056
:1041000038BD000020130020C40000203813002018
:1041100068120020220100200EB51A4804F008FFA2
:104120001948006820F01000174908601748007807
:10413000C0F3C00018B31648007800BB01F056FA6F
:1041400014480078401CFCF7DDFE1349487000203D
:1041500002909DF8080020F0E000029000200190FD
:104160000E4801789DF8040061F3C710019000200B
:104170000346024601A9009002A800F0E1F803F00E
:1041800049FE0EBDF0120020040100202301002092
:10419000941300202001002068120020D700002086
:1041A00010B501200249087004F04CFF10BD00005A
:1041B000480000200349096841EA8001014A116072
:1041C000704700000070004010B502460020094B07
:1041D000186820F0030010431860074B1B6843F079
:1041E0000403054C2360012901D130BF00E020BF4A
:1041F00010BD00000070004010ED00E00149886231
:104200007047000000000E4201460020034A526839
:104210000A400AB1012000E0002070470070004011
:10422000014908617047000000000E420149086220
:104230007047000000000E420149486270470000CC
:1042400000000E42F0B503460D460021002403B1E4
:104250000AB90020F0BD00212AE0585C801E072822
:1042600022D2DFE800F0201B1F04181C12000846B1
:104270004E1CF1B21F5C2046661CF4B217545F5C02
:104280002046661CF4B217540FE05F5C2046661CA3
:10429000F4B2175409E0881CC1B206E000BF481C04
:1042A000C1B202E000BF00E000BF00BF481CC1B2C5
:1042B000A942D2DB2046CDE710B5FCF78DFE1948A8
:1042C00000780A2805DA17480078401C154908705C
:1042D00025E00020134908701348007802281ED1F9
:1042E00000BF1248007830B111480078042802DB82
:1042F00010A005F0F1FC00BFFCF740FE0020FFF726
:104300008FFF0120FFF798FF0020FFF777FF0121C3
:104310000220FEF78FFE01210846FFF755FFFCF74C
:1043200065FE10BD58000020600000206C010020D8
:104330006D0100202073746F7021200D0A000000B1
:104340002DE9FF4F85B081460D461E460024002012
:104350000490B046DDF81CB0FE490880FE490870A4
:1043600006B91290FD491298087099F8002020466D
:10437000611CCCB2FA490A5499F80000400930B1E6
:1043800002286FD0042869D0072872D127E2F148AB
:104390000480F3490246128888180822F149096806
:1043A00006F0E0FBEB4800880830EA490880EC4959
:1043B000E84A128888180822EB49096806F0D2FBFF
:1043C000E44800880830E3490880E84948698047A4
:1043D000E749088008460178DE4802880088401CCA
:1043E000DC4B1880DE488154E1480088020A1846F8
:1043F00001880088401C1880D9484254184601782A
:1044000004ABDC480268D648FDF782FF0498C1B2CD
:10441000D04802880088401CCE4B1880D048815478
:104420000498C0F30722184601880088401C1880B1
:10443000CB4842540498C0F30741184602880088CC
:10444000401C1880C64881540498000E19460A88FA
:104450000988491C1980C2498854D4E10120BE4909
:10446000087000BFC448007820B9072009B0BDE833
:10447000F08FC6E12978C809C04A0121FCF704FD84
:10448000297860F386112970BD480078012807D18A
:104490000020BB490870287820F0200020302870C8
:1044A000B84802782046611CCCB2AD490A54B548E0
:1044B0000088C0F307222046611CCCB2A8490A54E8
:1044C000B0480068C0F307422046611CCCB2A44942
:1044D0000A54AC480068000E2146621CD4B2A04ABF
:1044E00050542A782046611CCCB29D490A54A648F3
:1044F00002782046611CCCB299490A54A24800882F
:10450000C0F307222046611CCCB295490A549F494A
:104510009F4A127888189F490A789F4906F016FB2F
:104520009B4800789B490978084499490870B8F17C
:10453000000F56D089480078002852DD08460078E0
:104540000F284DDC95480078012849D12878097852
:104550000844297860F3030129702878804948715C
:10456000002708E08948C25D2046611CCCB27C4926
:104570000A54781C87B2864800788742F2DB00BF75
:104580008748007830B187480078022802DB86A08F
:1045900005F0A2FB00BF4FF0000A12E000BF804808
:1045A000007848B17F480078022805DB774810F88A
:1045B0000A1083A005F090FB00BF0AF1010000F093
:1045C000FF0A734800788245E8DB00BF7448007832
:1045D00030B174480078022802DB7BA005F07CFB38
:1045E00041E06B48007800283DDD6C4800780028E9
:1045F00039D06748007859490870DFF890814FF04A
:10460000000B00BF6648007830B166480078022889
:1046100002DB65A005F060FB00BF4FF0000A12E06E
:1046200000BF5F48007848B15E480078022805DB8B
:10463000564810F80A1062A005F04EFB00BF0AF1C0
:10464000010000F0FF0A524800788245E8DB00BF15
:104650005348007830B153480078022802DB5AA052
:1046600005F03AFB00BF00204C4908704A4A484810
:1046700001784648FFF7E6FD46490870084600788D
:10468000002802DD012045490870B8F1000F2DD047
:1046900032480078002829DD2046611CCCB2304920
:1046A00001F800B0BBF1000F10D108462044364994
:1046B00009680022CDE9002102903248444A03688B
:1046C000264801784046FEF7F3F90FE024482044DD
:1046D0002D4909680022CDE90021029029483D4A70
:1046E00003681E4801784046FEF7E2F91B4800784F
:1046F00020441849088004A8234909680022CDE90C
:10470000002102901F48324A036812480188144869
:10471000FDF766FC0498C1B2114A0E480088115496
:104720000498C0F307210B480088401C11540498DA
:10473000C0F307420A4907480088801C0A540498BD
:10474000000E0A4603490988C91C505401480088D4
:10475000001D41E0C8000020DC000020CA0000204D
:104760004C0D0020AC000020A80000202CB1000857
:10477000B4000020B0000020D60000206912002004
:10478000DD000020BC000020CC0000204A0F0020EB
:10479000DF000020E0000020590F0020DE00002094
:1047A0006C0100206D0100200D0A2053656E64200D
:1047B0004D616320436F6D6D616E64735B0000003B
:1047C0002025303258000000205D0D0A0000000056
:1047D0002C0D00203C0D00200C49088013E07EB118
:1047E0000B48007800280BDD0A49081908490A78A7
:1047F000314606F0ABF906480078204403490880AA
:1048000001E0022032E600BF00202FE6C8000020B1
:10481000CA0000204C0D002010B51048006840F080
:1048200040000E4908600E48007808B1FEF712FCFF
:104830000C48007820F00200801C0A4908700846E5
:10484000007820F01000103008700121064804F0B4
:1048500017FB054804F01EFB10BD000004010020FA
:10486000DC00002023010020D812002010B5044BEA
:10487000044A05490548FCF761FD002010BD000011
:1048800044000020020000208401002001000020DC
:104890002DE9FF4F85B00446914600BFF6480078E9
:1048A00030B1F6480078022802DBF5A005F014FAD2
:1048B00000BF9DF818500EE000BFEF48007838B1F7
:1048C000EE480078022803DB615DF3A005F004FAEE
:1048D00000BF681CC5B24D45EEDB00BFE64800785E
:1048E00030B1E6480078022802DBEDA005F0F4F9CB
:1048F00000BFB9E19DF81810481CC0B20690605C7A
:1049000004900498801E07287BD2DFE800F004188A
:10491000DDF5F3F2F1000020E34948709DF818102E
:10492000481CC0B20690605CDF4908729DF8181000
:10493000481CC0B20690605CDB49487293E10725D1
:1049400000200390002682460027009001900290EC
:10495000804608E0D54830F818002DF8180008F116
:10496000010000F0FF08B8F1060FF3DB9DF8181006
:10497000481CC0B20690605C46B206F00F0003907F
:10498000C6F30316CA480078B8B9C8482C3890F95D
:104990000100B04206D1C5482C3890F900100398A8
:1049A00081420AD0002211460320FCF789F99DF8C4
:1049B0001800C01CC0B2069055E19DF81810481CA4
:1049C000C0B2069014F801B09DF81810481CC0B28F
:1049D0000690605C4BEA002B9DF81810481CC0B292
:1049E000069014F801A0CAF302170AF00F0ABAF1F0
:1049F000000F01D14FF0010A062F22D10021002221
:104A00001CE01DE1002012E00B18DFF8A8C25CF8E2
:104A1000333053B13DF812304FF0010C0CFA00FC6A
:104A200043EA0C039BB22DF81230431CD8B2102875
:104A3000EADB01F11000C1B2501CC2B26029E1DB17
:104A400019E0072F02D105F0FE0514E000200EE06A
:104A50000121814001EA0B0139B100EB0711954AB0
:104A600052F8311009B905F0FE05411CC8B21028F2
:104A7000EEDB2DF817B06946304605F0CDF808B9E1
:104A800005F0FD0507220021039805F01BF908B980
:104A900005F0FB0505F0070007280FD183482C38E7
:104AA000467082492C39039808700C2269467F4869
:104AB00006F04CF87D482C3880F820A000222946CA
:104AC0000320FCF7FDF8CEE09DF81810481CC0B29A
:104AD0000690605C7849087008460178012088409B
:104AE00076490880002211460420FCF7E9F8BAE074
:104AF00075E067E053E0FFE7072500BF00BF00BF98
:104B00009DF81800205CC0F302189DF81800205C86
:104B100000F00F079DF81800401CC0B206909DF8E9
:104B20001810481CC0B20690665C9DF81810481C0E
:104B3000C0B20690605C46EA00269DF81810481C3A
:104B4000C0B20690605C46EA0046642046433046A8
:104B500001F000F808B905F0FE05052200213846ED
:104B600005F0B0F808B905F0FD0503220021404624
:104B700005F0A8F808B905F0FB0505F007000728BF
:104B800007D14A482C3880F828704662014681F8DF
:104B90002180002229460520FCF792F863E0FF25DA
:104BA0004748006840B146480068006820B1444961
:104BB000096808688047054629460620089AFCF7D8
:104BC0007FF850E0032500259DF81800401DC0B275
:104BD0000690002229460720FCF772F843E09DF872
:104BE0001810481CC0B20690605C00F00F0ABAF1C1
:104BF000000F03D10AF1010000F0FF0A5046FBF755
:104C0000C7FC074600222F4BFBF7CBFB0546FBF703
:104C1000EBFC26492C3908610869FBF7B9FC05460D
:104C20000022284BFBF716FB0746FBF7DDFC1F496C
:104C30002C394861002211460820FCF741F812E0A7
:104C400021480078C0F10F00C0B22049204B06AACD
:104C5000CDE900102146049800F03CF800B102E0D4
:104C600009B0BDE8F08F00BF9DF818004845FFF679
:104C700041AE00BFF4E700006C0100206D01002090
:104C80000D0A2052656376204D616320436F6D6D80
:104C9000616E64735B000000202530325800000014
:104CA000205D0D0A000000009413002094120020E3
:104CB000D7000020680F0020F1000020F200002043
:104CC0000C01002000408F40E0000020DF000020A9
:104CD0004A0F00202DE9F0470446884691469A463F
:104CE000DDE908670025802C19D100221146FBF769
:104CF000E7FF04F093F900BF0D48007830B10D488C
:104D00000078022802DB0CA004F0E6FF00BF1E20A2
:104D1000FCF7DDFC1E2003F07DFF012500E000BF55
:104D200000BF15B10120BDE8F0870020FBE70000BF
:104D30006C0100206D010020207265736574206194
:104D400066746572203330732E2E2E0D0A0D0A0DF7
:104D50000A00000029B1064A12680243044B1A6097
:104D600004E0034A12688243014B1A607047000056
:104D70001C38024029B1064A12680243044B1A60EB
:104D800004E0034A12688243014B1A607047000036
:104D90002438024029B1064A12680243044B1A60C3
:104DA00004E0034A12688243014B1A607047000016
:104DB0001838024029B1064A12680243044B1A60AF
:104DC00004E0034A12688243014B1A6070470000F6
:104DD0002038024029B1064A12680243044B1A6087
:104DE00004E0034A12688243014B1A6070470000D6
:104DF00014380240F0B500210022002300260024D0
:104E00000025374F3F6807F00C0131B1042912D05B
:104E1000082913D00C2934D113E0314F3F1F3F68CC
:104E2000C7F342356F1C4FF0010C0CFA07FC4FEA38
:104E3000CC37076033E02B4F076030E0294F076025
:104E40002DE0274F3F6807F47012254F3F6807F4A5
:104E50004003254F07EB92473A78012707EB93531E
:104E60001F4F3F6807F480362EB91E4F5743B7FBDC
:104E7000F3F7076004E01B4F5743B7FBF3F70760F6
:104E80000DE0174F3F1F3F68C7F342356F1C4FF0CF
:104E9000010C0CFA07FC4FEACC37076000BF00BFDB
:104EA0000F4F3F6807F0F0010909104F7C5C07685D
:104EB000E74047600A4F3F6807F4E061090A0B4F7B
:104EC0007C5C4768E7408760054F3F6807F46051A6
:104ED000C90A064F7C5C4768E740C760F0BD000028
:104EE000083802400024F4007D00002086000020E5
:104EF00010B501460022002300204A11012A02D1E8
:104F0000074C236802E0064C3434236801F01F028A
:104F1000012494401C400CB1012000E0002010BD91
:104F2000003802400248006800F00C0070470000A2
:104F3000083802400021024A11701146087070477B
:104F4000023802400021024A117011460870704771
:104F500035380240014908667047000000004742AA
:104F60000149086070470000D8064742002100F45C
:104F70004032B2F5403F08D10C4A116821F0C041DF
:104F800000F0C0421143094A1160084A34321268E5
:104F900022F44032054B34331A601A46126800F48A
:104FA00040331A43014B34331A60704700380240D3
:104FB0000149086070470000DC06474201460020B6
:104FC000034A106820F00300084310607047000097
:104FD0000838024038B5024600240094002300201F
:104FE000CA24184D2C6053242C6041B1154C1C3C34
:104FF00024681443134D1C3D2C6001201EE0114C0D
:105000001C3C246894430F4D1C3D2C6000BF0D4C8C
:10501000183C246804EA1223009C641C0094009C41
:10502000B4F5005F01D0002BF1D0064C183C246889
:1050300004EA12240CB9002000E00120FF24014DF5
:105040002C6038BD2428004010B54FF4805000F08B
:10505000A7F858B14FF4805000F032F84FF4003008
:10506000FCF74CFCFDF7E0FE03F062FE10BD0146CC
:1050700000BF080900EB8000420001F00F0010445F
:10508000C0B270470146002204E0501CC2B2A1F138
:105090000A00C1B20A29F8DA100741EA1060704725
:1050A000C0F3100141F08001044A126802F080024E
:1050B00062EA0101014A1160704700000C280040BB
:1050C000002101098AB242F08002044B1B6803F000
:1050D000800363EA0202014B1A6070470C2800400B
:1050E00001210170817041700021C1707047000082
:1050F00008B50022009200200021104A126802F038
:105100004002CAB9421E0D4B1A6000BF0B4A12681A
:1051100002F04001009A521C0092009AB2F5005F22
:1051200001D00029F2D0054A126802F040020AB10B
:10513000012002E0002000E0012008BD0C28004012
:105140000348006820F080000149086070470000B3
:105150000C28004070B506460C4600250E48006835
:105160000E4900EA0105280CE070C5F304206070C8
:1051700005F03F00A070C5F3423020705EB9E078C2
:10518000FFF775FFE0706078FFF771FF6070A0783F
:10519000FFF76DFFA07070BD042800403FFFFF00C7
:1051A00030B501460020002200230D4C246804F095
:1051B00004020B4C383C24680C408D0C21FA05F598
:1051C00002EAD53544EA0503054C343C246804EA78
:1051D00011121BB194B20CB1012000E0002030BDCF
:1051E0004028004070B506460C4600250F48006870
:1051F0000F4900EA0105C5F305402070C5F30620FC
:10520000607005F07F00A07005F48000000CE07075
:105210005EB92078FFF72BFF20706078FFF727FF3B
:105220006070A078FFF723FFA07070BD00280040D9
:105230007F7F7F00CA22174B1A6053221A6091B1F8
:10524000144A1C3A126820F004031A43114B1C3B09
:105250001A60104A1C32126800F004031A430D4B06
:105260001C331A6011E00B4A1C3A126820F0040348
:105270009A43084B1C3B1A60064A1C32126800F025
:1052800004039A43034B1C331A60FF22014B1A603C
:10529000704700002428004030B504460025CA208D
:1052A0001549086053200860FFF722FF00B91DE090
:1052B00011481C38006820F040000F491C39086074
:1052C00008460068216808430B491C3908600A49F0
:1052D0001439A068086008460068A18840EA0140C7
:1052E000054914390860FFF72BFF0125FF2002490B
:1052F0000860284630BD0000242800402DE9F04118
:1053000005460E461446002765B93648006800F089
:10531000400000B102E00020E07000BFA06800B9CA
:1053200019E018E02F48006800F0400020B1207814
:10533000FFF79DFE074602E00020E07000BFA06876
:1053400020B9207BFFF793FE074604E0207BFFF7A0
:105350008EFE074600BF95B120780004617840EAD0
:105360000120A1780843E17840EA0140217B40EA2E
:105370000160A1680843616840EA01071BE02078EA
:10538000FFF780FE4FEA00486078FFF77BFE48EAAF
:105390000028A078FFF776FE48EA0008E07848EA9F
:1053A0000048207BFFF76EFE48EA0060A1680843D2
:1053B000616840EA0107CA200A491C31086053208D
:1053C0000860B6F5807F03D106481430076002E01C
:1053D000044818300760FF2002491C310860BDE80E
:1053E000F0810000082800402DE9F04105460C46F8
:1053F000002600274DB9607800F01000102804D175
:10540000607820F010000A30607005B908E060781C
:10541000FFF72DFE0646A078FFF729FE064600BFDF
:1054200055B1E0780004617840EA0120A178084392
:10543000217840EA413611E0E078FFF723FE4FEA99
:1054400000486078FFF71EFE48EA0028A078FFF7C2
:1054500019FE48EA0008207848EA4036CA20124976
:10546000086053200860FFF743FE08B9002714E0E6
:105470000E4830400C4920390860FFF761FE0A48A9
:105480001C38006800F0200030B900F07FF808B93F
:10549000002702E0012700E00127FF200249086001
:1054A0003846BDE8F0810000242800403FFFFF009F
:1054B0002DE9F04105460C46002600274DB92E483F
:1054C000006800F0400000B102E00020E07000BF82
:1054D0000DE02948006800F0400020B12078FFF777
:1054E000C6FD064602E00020E07000BF00BF55B1D7
:1054F00020780004617840EA0120A1780843E1782F
:1055000040EA014611E02078FFF7BCFD4FEA004871
:105510006078FFF7B7FD48EA0028A078FFF7B2FDF2
:1055200048EA0008E07848EA0046CA2012491C31DF
:10553000086053200860FFF7DBFD08B9002713E07F
:105540000E4830400C4908390860FFF7F9FD0A4859
:10555000006800F0200030B900F018F808B9002702
:1055600002E0012700E00127FF2003491C31086009
:105570003846BDE8F0810000082800407F7F7F00AA
:105580000021C170017041708170704708B5002220
:10559000009200200021CA22134B1A6053221A6085
:1055A000114A183A126822F0A0020F4B183B1A60F9
:1055B00000BF0D4A183A126802F02001009A521CEE
:1055C0000092009AB2F5004F01D00029F1D0064AAE
:1055D000183A126802F020020AB1012000E000200F
:1055E000FF22014B1A6008BD2428004010B500209E
:1055F0002449087024490860244908602449086047
:1056000024490870012024490870244908700020AA
:10561000234908702349087001202349088000208D
:105620002249087022490870012022490870224846
:105630000078224908702048407848701E4890F849
:10564000210081F8210008461B4AD2E90912C0E96D
:1056500009120C2218492C312C3005F077FA002061
:1056600017490870174908701749087017480468E7
:1056700002E000206062E46A002CFAD16020144944
:10568000087010BDD6000020CC000020D000002003
:10569000D8000020F000002018010020190100208F
:1056A0001A010020F1000020F2000020DF0000209D
:1056B000E0000020D5000020A01200206812002089
:1056C000DC000020DD000020DE000020C000002003
:1056D000FD000020FBF7D6FC2DE9F04F91B0044609
:1056E0000E4630222B4904A8FAF720FDE078002866
:1056F00014DDE078A0F1010A012000EB9A09E078BE
:10570000C11700EB91718910A0EB810121B961787B
:10571000022901DD012509E0002507E04FF000091D
:105720006078022801DD012500E00025E07840F2E4
:105730006D1101FB00916078401E04AA52F8200010
:105740000844A1780844401E0544317805EB450221
:1057500001EBC201C1EB0111727802EB8101C1EBD7
:105760000111B27802EB8100FAF712FF07460A4AEC
:105770000A4BFAF788FE0022094BCDE90001FAF73F
:1057800069FDCDE90201FAF72FFF8346584611B0B3
:10579000BDE8F08FFCB00008FCA9F1D24D620040DA
:1057A0000000E03F70B5044600F030F80546A54221
:1057B00001D32D1B02E002482844051B284670BD7A
:1057C000853ED85B70B5044600F020F8054600BF62
:1057D0002846FFF7E7FFA042FAD370BD10B500F0EE
:1057E00015F8044607480068844203D3054800685A
:1057F000241A04E00448204402490968441A204657
:1058000010BD000068000020853ED85B1CB5FFF786
:10581000BDFE01A90020FFF7E5FC69460020FFF767
:1058200099FC01A96846FFF757FF1CBD10B5074852
:10583000007850B900F046F800F00CF80221044856
:10584000FDF702FA01200149087010BD6400002034
:105850007000002000B587B04FF40030FCF74EF820
:105860004FF40030059000208DF8180008208DF8C6
:10587000190001208DF81A0005A8FCF751F829201D
:105880008DF8000002208DF8010000208DF8020044
:1058900001208DF803006846FDF786FB4FF00040BD
:1058A000029001AAC10D0020FFF728FD00214FF44E
:1058B0008050FFF7BFFC00214FF48070FFF78AFB98
:1058C00007B000BD00B585B001210807FFF752FA07
:1058D0000120FEF7ABFC0120FFF76AFB0020FFF779
:1058E00067FB0120FFF72EFB00BF4920FFF700FBFD
:1058F0000028FAD04FF48030FFF738FB0120FFF783
:105900002FFB0320039004900020029002A8FFF7D1
:10591000C3FC01A8FFF734FE6846FFF7E1FB6946C8
:105920000120FFF761FD01A90120FFF7C1FD05B0CE
:1059300000BD000070B50446DCB1322C08D2022C48
:1059400000D20224002201210D48FDF7ABFA04E049
:10595000002202210A48FDF7A5FAFCF71BF90546CB
:10596000022D02D107480068241A204600F00CF8E6
:1059700004E0002202210248FDF794FA70BD000005
:10598000700000206C0000202DE9F04788B004462C
:1059900000F0D0F8FFF7FAFD07A90020FFF722FC7E
:1059A00006A90020FFF7D6FB07A906A8FFF794FE7B
:1059B0005A4908602046FAF7EBFD0746584A594B0A
:1059C000FAF7EFFCCDE90001FAF70EFE044656485F
:1059D00084420AD99DF81E609DF81D909DF81CA078
:1059E0009DF81A001930C5B24FE0002200200021B6
:1059F00000233C27B4FBF7FC07FB1C479DF81EC0A7
:105A00006744FAB23C27B4FBF7F4B4FBF7FC07FB9E
:105A10001C479DF81DC06744F8B23C27B4FBF7F45F
:105A20001827B4FBF7FC07FB1C479DF81CC0674414
:105A3000F9B21827B4FBF7F79DF81AC06744FBB218
:105A40003C2792FBF7FC07FB1C27FEB23C2792FB8E
:105A5000F7F70744F8B23C2790FBF7FC07FB1C075D
:105A600007F0FF093C2790FBF7F70F44F9B218271E
:105A700091FBF7FC07FB1C1707F0FF0A182791FBA7
:105A8000F7F71F44FBB21D4600BF9DF81B00C1176E
:105A900000EB91718910A0EB810181B99DF819008B
:105AA000401E2249085CA84219DA9DF81900401EE0
:105AB000085C95FBF0F100FB1150C5B20FE09DF8BA
:105AC0001900401E1A49085CA84208DA9DF819001E
:105AD000401E085C95FBF0F100FB1150C5B28DF83B
